{
  "address": "0x3b5dDE8EEDeBC4c0cd11FC13Da05174459Cb1fB0",
  "abi": [
    {
      "inputs": [],
      "stateMutability": "nonpayable",
      "type": "constructor"
    },
    {
      "anonymous": false,
      "inputs": [
        {
          "indexed": true,
          "internalType": "address",
          "name": "owner",
          "type": "address"
        },
        {
          "indexed": true,
          "internalType": "address",
          "name": "approved",
          "type": "address"
        },
        {
          "indexed": true,
          "internalType": "uint256",
          "name": "tokenId",
          "type": "uint256"
        }
      ],
      "name": "Approval",
      "type": "event"
    },
    {
      "anonymous": false,
      "inputs": [
        {
          "indexed": true,
          "internalType": "address",
          "name": "owner",
          "type": "address"
        },
        {
          "indexed": true,
          "internalType": "address",
          "name": "operator",
          "type": "address"
        },
        {
          "indexed": false,
          "internalType": "bool",
          "name": "approved",
          "type": "bool"
        }
      ],
      "name": "ApprovalForAll",
      "type": "event"
    },
    {
      "anonymous": false,
      "inputs": [
        {
          "indexed": true,
          "internalType": "address",
          "name": "previousOwner",
          "type": "address"
        },
        {
          "indexed": true,
          "internalType": "address",
          "name": "newOwner",
          "type": "address"
        }
      ],
      "name": "OwnershipTransferred",
      "type": "event"
    },
    {
      "anonymous": false,
      "inputs": [
        {
          "indexed": true,
          "internalType": "address",
          "name": "from",
          "type": "address"
        },
        {
          "indexed": true,
          "internalType": "address",
          "name": "to",
          "type": "address"
        },
        {
          "indexed": true,
          "internalType": "uint256",
          "name": "tokenId",
          "type": "uint256"
        }
      ],
      "name": "Transfer",
      "type": "event"
    },
    {
      "inputs": [
        {
          "internalType": "address",
          "name": "to",
          "type": "address"
        },
        {
          "internalType": "uint256",
          "name": "tokenId",
          "type": "uint256"
        }
      ],
      "name": "approve",
      "outputs": [],
      "stateMutability": "nonpayable",
      "type": "function"
    },
    {
      "inputs": [
        {
          "internalType": "address",
          "name": "owner",
          "type": "address"
        }
      ],
      "name": "balanceOf",
      "outputs": [
        {
          "internalType": "uint256",
          "name": "",
          "type": "uint256"
        }
      ],
      "stateMutability": "view",
      "type": "function"
    },
    {
      "inputs": [
        {
          "internalType": "uint256",
          "name": "tokenId",
          "type": "uint256"
        }
      ],
      "name": "getApproved",
      "outputs": [
        {
          "internalType": "address",
          "name": "",
          "type": "address"
        }
      ],
      "stateMutability": "view",
      "type": "function"
    },
    {
      "inputs": [
        {
          "internalType": "address",
          "name": "_addr",
          "type": "address"
        }
      ],
      "name": "getMintedNFTs",
      "outputs": [
        {
          "internalType": "string[]",
          "name": "",
          "type": "string[]"
        }
      ],
      "stateMutability": "view",
      "type": "function"
    },
    {
      "inputs": [],
      "name": "getNextId",
      "outputs": [
        {
          "internalType": "uint256",
          "name": "",
          "type": "uint256"
        }
      ],
      "stateMutability": "view",
      "type": "function"
    },
    {
      "inputs": [
        {
          "internalType": "address",
          "name": "_addr",
          "type": "address"
        }
      ],
      "name": "getPublicMintableNFTs",
      "outputs": [
        {
          "internalType": "string[]",
          "name": "",
          "type": "string[]"
        }
      ],
      "stateMutability": "view",
      "type": "function"
    },
    {
      "inputs": [
        {
          "internalType": "address",
          "name": "owner",
          "type": "address"
        },
        {
          "internalType": "address",
          "name": "operator",
          "type": "address"
        }
      ],
      "name": "isApprovedForAll",
      "outputs": [
        {
          "internalType": "bool",
          "name": "",
          "type": "bool"
        }
      ],
      "stateMutability": "view",
      "type": "function"
    },
    {
      "inputs": [],
      "name": "name",
      "outputs": [
        {
          "internalType": "string",
          "name": "",
          "type": "string"
        }
      ],
      "stateMutability": "view",
      "type": "function"
    },
    {
      "inputs": [],
      "name": "owner",
      "outputs": [
        {
          "internalType": "address",
          "name": "",
          "type": "address"
        }
      ],
      "stateMutability": "view",
      "type": "function"
    },
    {
      "inputs": [
        {
          "internalType": "uint256",
          "name": "tokenId",
          "type": "uint256"
        }
      ],
      "name": "ownerOf",
      "outputs": [
        {
          "internalType": "address",
          "name": "",
          "type": "address"
        }
      ],
      "stateMutability": "view",
      "type": "function"
    },
    {
      "inputs": [],
      "name": "renounceOwnership",
      "outputs": [],
      "stateMutability": "nonpayable",
      "type": "function"
    },
    {
      "inputs": [
        {
          "internalType": "address",
          "name": "recipient",
          "type": "address"
        },
        {
          "internalType": "string",
          "name": "tokenURI",
          "type": "string"
        },
        {
          "internalType": "string",
          "name": "badgeType",
          "type": "string"
        }
      ],
      "name": "safeMint",
      "outputs": [
        {
          "internalType": "uint256",
          "name": "",
          "type": "uint256"
        }
      ],
      "stateMutability": "nonpayable",
      "type": "function"
    },
    {
      "inputs": [
        {
          "internalType": "address",
          "name": "from",
          "type": "address"
        },
        {
          "internalType": "address",
          "name": "to",
          "type": "address"
        },
        {
          "internalType": "uint256",
          "name": "tokenId",
          "type": "uint256"
        }
      ],
      "name": "safeTransferFrom",
      "outputs": [],
      "stateMutability": "nonpayable",
      "type": "function"
    },
    {
      "inputs": [
        {
          "internalType": "address",
          "name": "from",
          "type": "address"
        },
        {
          "internalType": "address",
          "name": "to",
          "type": "address"
        },
        {
          "internalType": "uint256",
          "name": "tokenId",
          "type": "uint256"
        },
        {
          "internalType": "bytes",
          "name": "data",
          "type": "bytes"
        }
      ],
      "name": "safeTransferFrom",
      "outputs": [],
      "stateMutability": "nonpayable",
      "type": "function"
    },
    {
      "inputs": [
        {
          "internalType": "address",
          "name": "operator",
          "type": "address"
        },
        {
          "internalType": "bool",
          "name": "approved",
          "type": "bool"
        }
      ],
      "name": "setApprovalForAll",
      "outputs": [],
      "stateMutability": "nonpayable",
      "type": "function"
    },
    {
      "inputs": [
        {
          "internalType": "bytes4",
          "name": "interfaceId",
          "type": "bytes4"
        }
      ],
      "name": "supportsInterface",
      "outputs": [
        {
          "internalType": "bool",
          "name": "",
          "type": "bool"
        }
      ],
      "stateMutability": "view",
      "type": "function"
    },
    {
      "inputs": [],
      "name": "symbol",
      "outputs": [
        {
          "internalType": "string",
          "name": "",
          "type": "string"
        }
      ],
      "stateMutability": "view",
      "type": "function"
    },
    {
      "inputs": [
        {
          "internalType": "uint256",
          "name": "tokenId",
          "type": "uint256"
        }
      ],
      "name": "tokenURI",
      "outputs": [
        {
          "internalType": "string",
          "name": "",
          "type": "string"
        }
      ],
      "stateMutability": "view",
      "type": "function"
    },
    {
      "inputs": [
        {
          "internalType": "address",
          "name": "from",
          "type": "address"
        },
        {
          "internalType": "address",
          "name": "to",
          "type": "address"
        },
        {
          "internalType": "uint256",
          "name": "tokenId",
          "type": "uint256"
        }
      ],
      "name": "transferFrom",
      "outputs": [],
      "stateMutability": "nonpayable",
      "type": "function"
    },
    {
      "inputs": [
        {
          "internalType": "address",
          "name": "newOwner",
          "type": "address"
        }
      ],
      "name": "transferOwnership",
      "outputs": [],
      "stateMutability": "nonpayable",
      "type": "function"
    },
    {
      "inputs": [
        {
          "internalType": "address",
          "name": "addr",
          "type": "address"
        },
        {
          "internalType": "int256",
          "name": "rating",
          "type": "int256"
        }
      ],
      "name": "updateMintableNFTs",
      "outputs": [],
      "stateMutability": "nonpayable",
      "type": "function"
    }
  ],
  "transactionHash": "0xea2148482aac03a90000e80ab572ffaf0079a7bda4a99196705a700f4597fc14",
  "args": [],
  "numDeployments": 1,
  "solcInputHash": "1051ecca7dc69a818286bef7b0c24825",
  "bytecode": "0x60806040523480156200001157600080fd5b506040518060400160405280601481526020017f427562626c6520427265616b65722042616467650000000000000000000000008152506040518060400160405280600381526020016221212160e91b8152508160009081620000759190620001a2565b506001620000848282620001a2565b505050620000a16200009b620000a760201b60201c565b620000ab565b6200026e565b3390565b600780546001600160a01b038381166001600160a01b0319831681179093556040519116919082907f8be0079c531659141344cd1fd0a4f28419497f9722a3daafe3b4186f6b6457e090600090a35050565b634e487b7160e01b600052604160045260246000fd5b600181811c908216806200012857607f821691505b6020821081036200014957634e487b7160e01b600052602260045260246000fd5b50919050565b601f8211156200019d57600081815260208120601f850160051c81016020861015620001785750805b601f850160051c820191505b81811015620001995782815560010162000184565b5050505b505050565b81516001600160401b03811115620001be57620001be620000fd565b620001d681620001cf845462000113565b846200014f565b602080601f8311600181146200020e5760008415620001f55750858301515b600019600386901b1c1916600185901b17855562000199565b600085815260208120601f198616915b828110156200023f578886015182559484019460019091019084016200021e565b50858210156200025e5787850151600019600388901b60f8161c191681555b5050505050600190811b01905550565b612761806200027e6000396000f3fe608060405234801561001057600080fd5b50600436106101375760003560e01c806370a08231116100b8578063b88d4fde1161007c578063b88d4fde1461028d578063bc968326146102a0578063c87b56dd146102a8578063e985e9c5146102bb578063eca81d42146102ce578063f2fde38b146102e157600080fd5b806370a0823114610238578063715018a6146102595780638da5cb5b1461026157806395d89b4114610272578063a22cb4651461027a57600080fd5b80632acac065116100ff5780632acac065146101cc57806342842e0e146101df5780635f6ebe64146101f257806362766dec146102125780636352211e1461022557600080fd5b806301ffc9a71461013c57806306fdde0314610164578063081812fc14610179578063095ea7b3146101a457806323b872dd146101b9575b600080fd5b61014f61014a366004611eed565b6102f4565b60405190151581526020015b60405180910390f35b61016c610346565b60405161015b9190611f5a565b61018c610187366004611f6d565b6103d8565b6040516001600160a01b03909116815260200161015b565b6101b76101b2366004611fa2565b6103ff565b005b6101b76101c7366004611fcc565b610519565b6101b76101da366004611fa2565b61054a565b6101b76101ed366004611fcc565b610589565b610205610200366004612008565b6105a4565b60405161015b9190612023565b610205610220366004612008565b610693565b61018c610233366004611f6d565b610777565b61024b610246366004612008565b6107d7565b60405190815260200161015b565b6101b761085d565b6007546001600160a01b031661018c565b61016c610871565b6101b7610288366004612085565b610880565b6101b761029b36600461214d565b61088f565b61024b6108c7565b61016c6102b6366004611f6d565b6108dd565b61014f6102c93660046121c9565b6109ed565b61024b6102dc36600461221c565b610a1b565b6101b76102ef366004612008565b610cdd565b60006001600160e01b031982166380ac58cd60e01b148061032557506001600160e01b03198216635b5e139f60e01b145b8061034057506301ffc9a760e01b6001600160e01b03198316145b92915050565b60606000805461035590612290565b80601f016020809104026020016040519081016040528092919081815260200182805461038190612290565b80156103ce5780601f106103a3576101008083540402835291602001916103ce565b820191906000526020600020905b8154815290600101906020018083116103b157829003601f168201915b5050505050905090565b60006103e382610d56565b506000908152600460205260409020546001600160a01b031690565b600061040a82610777565b9050806001600160a01b0316836001600160a01b03160361047c5760405162461bcd60e51b815260206004820152602160248201527f4552433732313a20617070726f76616c20746f2063757272656e74206f776e656044820152603960f91b60648201526084015b60405180910390fd5b336001600160a01b0382161480610498575061049881336109ed565b61050a5760405162461bcd60e51b815260206004820152603d60248201527f4552433732313a20617070726f76652063616c6c6572206973206e6f7420746f60448201527f6b656e206f776e6572206f7220617070726f76656420666f7220616c6c0000006064820152608401610473565b6105148383610db5565b505050565b6105233382610e23565b61053f5760405162461bcd60e51b8152600401610473906122ca565b610514838383610e81565b610552610fe5565b61055c828261103f565b6001600160a01b0383166000908152600a6020908152604090912082516105149391929190910190611e15565b6105148383836040518060200160405280600081525061088f565b6001600160a01b0381166000908152600a60209081526040808320805482518185028101850190935280835260609492939192909184015b828210156106885783829060005260206000200180546105fb90612290565b80601f016020809104026020016040519081016040528092919081815260200182805461062790612290565b80156106745780601f1061064957610100808354040283529160200191610674565b820191906000526020600020905b81548152906001019060200180831161065757829003601f168201915b5050505050815260200190600101906105dc565b505050509050919050565b6001600160a01b0381166000908152600960209081526040808320805482518185028101850190935280835260609492939192909184015b828210156106885783829060005260206000200180546106ea90612290565b80601f016020809104026020016040519081016040528092919081815260200182805461071690612290565b80156107635780601f1061073857610100808354040283529160200191610763565b820191906000526020600020905b81548152906001019060200180831161074657829003601f168201915b5050505050815260200190600101906106cb565b6000818152600260205260408120546001600160a01b0316806103405760405162461bcd60e51b8152602060048201526018602482015277115490cdcc8c4e881a5b9d985b1a59081d1bdad95b88125160421b6044820152606401610473565b60006001600160a01b0382166108415760405162461bcd60e51b815260206004820152602960248201527f4552433732313a2061646472657373207a65726f206973206e6f7420612076616044820152683634b21037bbb732b960b91b6064820152608401610473565b506001600160a01b031660009081526003602052604090205490565b610865610fe5565b61086f600061156f565b565b60606001805461035590612290565b61088b3383836115c1565b5050565b6108993383610e23565b6108b55760405162461bcd60e51b8152600401610473906122ca565b6108c18484848461168f565b50505050565b600060085460016108d8919061232d565b905090565b60606108e882610d56565b6000828152600660205260408120805461090190612290565b80601f016020809104026020016040519081016040528092919081815260200182805461092d90612290565b801561097a5780601f1061094f5761010080835404028352916020019161097a565b820191906000526020600020905b81548152906001019060200180831161095d57829003601f168201915b50505050509050600061099860408051602081019091526000815290565b905080516000036109aa575092915050565b8151156109dc5780826040516020016109c4929190612340565b60405160208183030381529060405292505050919050565b6109e5846116c2565b949350505050565b6001600160a01b03918216600090815260056020908152604080832093909416825291909152205460ff1690565b6001600160a01b03831660009081526009602090815260408083208054825181850281018501909352808352610b0693859084015b82821015610afc578382906000526020600020018054610a6f90612290565b80601f0160208091040260200160405190810160405280929190818152602001828054610a9b90612290565b8015610ae85780601f10610abd57610100808354040283529160200191610ae8565b820191906000526020600020905b815481529060010190602001808311610acb57829003601f168201915b505050505081526020019060010190610a50565b5050505083611736565b15610b445760405162461bcd60e51b815260206004820152600e60248201526d105b1c9958591e481b5a5b9d195960921b6044820152606401610473565b6001600160a01b0384166000908152600a602090815260408083208054825181850281018501909352808352610c299492939192909184015b82821015610afc578382906000526020600020018054610b9c90612290565b80601f0160208091040260200160405190810160405280929190818152602001828054610bc890612290565b8015610c155780601f10610bea57610100808354040283529160200191610c15565b820191906000526020600020905b815481529060010190602001808311610bf857829003601f168201915b505050505081526020019060010190610b7d565b610c755760405162461bcd60e51b815260206004820152601f60248201527f4e4654206e6f742077686974656c697374656420666f722061646472657373006044820152606401610473565b6001600160a01b038416600090815260096020908152604082208054600181018255908352912001610ca783826123bd565b50610cb284836117d5565b6008805460009182610cc38361247d565b919050559050610cd3858261193e565b6109e58185611958565b610ce5610fe5565b6001600160a01b038116610d4a5760405162461bcd60e51b815260206004820152602660248201527f4f776e61626c653a206e6577206f776e657220697320746865207a65726f206160448201526564647265737360d01b6064820152608401610473565b610d538161156f565b50565b6000818152600260205260409020546001600160a01b0316610d535760405162461bcd60e51b8152602060048201526018602482015277115490cdcc8c4e881a5b9d985b1a59081d1bdad95b88125160421b6044820152606401610473565b600081815260046020526040902080546001600160a01b0319166001600160a01b0384169081179091558190610dea82610777565b6001600160a01b03167f8c5be1e5ebec7d5bd14f71427d1e84f3dd0314c0f7b2291e5b200ac8c7c3b92560405160405180910390a45050565b600080610e2f83610777565b9050806001600160a01b0316846001600160a01b03161480610e565750610e5681856109ed565b806109e55750836001600160a01b0316610e6f846103d8565b6001600160a01b031614949350505050565b826001600160a01b0316610e9482610777565b6001600160a01b031614610eba5760405162461bcd60e51b815260040161047390612496565b6001600160a01b038216610f1c5760405162461bcd60e51b8152602060048201526024808201527f4552433732313a207472616e7366657220746f20746865207a65726f206164646044820152637265737360e01b6064820152608401610473565b826001600160a01b0316610f2f82610777565b6001600160a01b031614610f555760405162461bcd60e51b815260040161047390612496565b600081815260046020908152604080832080546001600160a01b03199081169091556001600160a01b0387811680865260038552838620805460001901905590871680865283862080546001019055868652600290945282852080549092168417909155905184937fddf252ad1be2c89b69c2b068fc378daa952ba7f163c4a11628f55a4df523b3ef91a4505050565b6007546001600160a01b0316331461086f5760405162461bcd60e51b815260206004820181905260248201527f4f776e61626c653a2063616c6c6572206973206e6f7420746865206f776e65726044820152606401610473565b6060611049610fe5565b60408051600380825260808201909252600091816020015b60608152602001906001900390816110615790505090506000600a8413801561119557506001600160a01b038516600090815260096020908152604080832080548251818502810185019093528083526111939492939192909184015b8282101561116a5783829060005260206000200180546110dd90612290565b80601f016020809104026020016040519081016040528092919081815260200182805461110990612290565b80156111565780601f1061112b57610100808354040283529160200191611156565b820191906000526020600020905b81548152906001019060200180831161113957829003601f168201915b5050505050815260200190600101906110be565b5050505060405180604001604052806007815260200166427265616b657960c81b815250611736565b155b156111e157604080518082019091526007815266427265616b657960c81b602082015282826111c38161247d565b9350815181106111d5576111d56124db565b60200260200101819052505b601e8413801561130257506001600160a01b038516600090815260096020908152604080832080548251818502810185019093528083526113009492939192909184015b828210156112d157838290600052602060002001805461124490612290565b80601f016020809104026020016040519081016040528092919081815260200182805461127090612290565b80156112bd5780601f10611292576101008083540402835291602001916112bd565b820191906000526020600020905b8154815290600101906020018083116112a057829003601f168201915b505050505081526020019060010190611225565b505050506040518060400160405280600d81526020016c26b4b2323632b13932b0b5b2b960991b815250611736565b155b156113545760408051808201909152600d81526c26b4b2323632b13932b0b5b2b960991b602082015282826113368161247d565b935081518110611348576113486124db565b60200260200101819052505b603c8413801561147157506001600160a01b0385166000908152600960209081526040808320805482518185028101850190935280835261146f9492939192909184015b828210156114445783829060005260206000200180546113b790612290565b80601f01602080910402602001604051908101604052809291908181526020018280546113e390612290565b80156114305780601f1061140557610100808354040283529160200191611430565b820191906000526020600020905b81548152906001019060200180831161141357829003601f168201915b505050505081526020019060010190611398565b5050505060405180604001604052806009815260200168427265616b65726f6f60b81b815250611736565b155b156114bf57604080518082019091526009815268427265616b65726f6f60b81b602082015282826114a18161247d565b9350815181106114b3576114b36124db565b60200260200101819052505b60008167ffffffffffffffff8111156114da576114da6120c1565b60405190808252806020026020018201604052801561150d57816020015b60608152602001906001900390816114f85790505b50905060005b828110156115655783818151811061152d5761152d6124db565b6020026020010151828281518110611547576115476124db565b6020026020010181905250808061155d9061247d565b915050611513565b5095945050505050565b600780546001600160a01b038381166001600160a01b0319831681179093556040519116919082907f8be0079c531659141344cd1fd0a4f28419497f9722a3daafe3b4186f6b6457e090600090a35050565b816001600160a01b0316836001600160a01b0316036116225760405162461bcd60e51b815260206004820152601960248201527f4552433732313a20617070726f766520746f2063616c6c6572000000000000006044820152606401610473565b6001600160a01b03838116600081815260056020908152604080832094871680845294825291829020805460ff191686151590811790915591519182527f17307eab39ab6107e8899845ad3d59bd9653f200f220920489ca2b5937696c31910160405180910390a3505050565b61169a848484610e81565b6116a6848484846119eb565b6108c15760405162461bcd60e51b8152600401610473906124f1565b60606116cd82610d56565b60006116e460408051602081019091526000815290565b90506000815111611704576040518060200160405280600081525061172f565b8061170e84611aec565b60405160200161171f929190612340565b6040516020818303038152906040525b9392505050565b6000805b83518110156117cb57826040516020016117549190612543565b6040516020818303038152906040528051906020012084828151811061177c5761177c6124db565b60200260200101516040516020016117949190612543565b60405160208183030381529060405280519060200120036117b9576001915050610340565b806117c38161247d565b91505061173a565b5060009392505050565b6001600160a01b0382166000908152600a602052604081209080805b8354811015611886578460405160200161180b9190612543565b60405160208183030381529060405280519060200120848281548110611833576118336124db565b9060005260206000200160405160200161184d919061255f565b60405160208183030381529060405280519060200120036118745780925060019150611886565b8061187e8161247d565b9150506117f1565b5080156119375782828154811061189f5761189f6124db565b9060005260206000200160006118b59190611e6b565b825483906118c5906001906125d5565b815481106118d5576118d56124db565b906000526020600020018383815481106118f1576118f16124db565b90600052602060002001908161190791906125e8565b5082805480611918576119186126bb565b6001900381819060005260206000200160006119349190611e6b565b90555b5050505050565b61088b828260405180602001604052806000815250611b7f565b6000828152600260205260409020546001600160a01b03166119d35760405162461bcd60e51b815260206004820152602e60248201527f45524337323155524953746f726167653a2055524920736574206f66206e6f6e60448201526d32bc34b9ba32b73a103a37b5b2b760911b6064820152608401610473565b600082815260066020526040902061051482826123bd565b60006001600160a01b0384163b15611ae157604051630a85bd0160e11b81526001600160a01b0385169063150b7a0290611a2f9033908990889088906004016126d1565b6020604051808303816000875af1925050508015611a6a575060408051601f3d908101601f19168201909252611a679181019061270e565b60015b611ac7573d808015611a98576040519150601f19603f3d011682016040523d82523d6000602084013e611a9d565b606091505b508051600003611abf5760405162461bcd60e51b8152600401610473906124f1565b805181602001fd5b6001600160e01b031916630a85bd0160e11b1490506109e5565b506001949350505050565b60606000611af983611bb2565b600101905060008167ffffffffffffffff811115611b1957611b196120c1565b6040519080825280601f01601f191660200182016040528015611b43576020820181803683370190505b5090508181016020015b600019016f181899199a1a9b1b9c1cb0b131b232b360811b600a86061a8153600a8504945084611b4d57509392505050565b611b898383611c8a565b611b9660008484846119eb565b6105145760405162461bcd60e51b8152600401610473906124f1565b60008072184f03e93ff9f4daa797ed6e38ed64bf6a1f0160401b8310611bf15772184f03e93ff9f4daa797ed6e38ed64bf6a1f0160401b830492506040015b6d04ee2d6d415b85acef81000000008310611c1d576d04ee2d6d415b85acef8100000000830492506020015b662386f26fc100008310611c3b57662386f26fc10000830492506010015b6305f5e1008310611c53576305f5e100830492506008015b6127108310611c6757612710830492506004015b60648310611c79576064830492506002015b600a83106103405760010192915050565b6001600160a01b038216611ce05760405162461bcd60e51b815260206004820181905260248201527f4552433732313a206d696e7420746f20746865207a65726f20616464726573736044820152606401610473565b6000818152600260205260409020546001600160a01b031615611d455760405162461bcd60e51b815260206004820152601c60248201527f4552433732313a20746f6b656e20616c7265616479206d696e746564000000006044820152606401610473565b6000818152600260205260409020546001600160a01b031615611daa5760405162461bcd60e51b815260206004820152601c60248201527f4552433732313a20746f6b656e20616c7265616479206d696e746564000000006044820152606401610473565b6001600160a01b038216600081815260036020908152604080832080546001019055848352600290915280822080546001600160a01b0319168417905551839291907fddf252ad1be2c89b69c2b068fc378daa952ba7f163c4a11628f55a4df523b3ef908290a45050565b828054828255906000526020600020908101928215611e5b579160200282015b82811115611e5b5782518290611e4b90826123bd565b5091602001919060010190611e35565b50611e67929150611ea5565b5090565b508054611e7790612290565b6000825580601f10611e87575050565b601f016020900490600052602060002090810190610d539190611ec2565b80821115611e67576000611eb98282611e6b565b50600101611ea5565b5b80821115611e675760008155600101611ec3565b6001600160e01b031981168114610d5357600080fd5b600060208284031215611eff57600080fd5b813561172f81611ed7565b60005b83811015611f25578181015183820152602001611f0d565b50506000910152565b60008151808452611f46816020860160208601611f0a565b601f01601f19169290920160200192915050565b60208152600061172f6020830184611f2e565b600060208284031215611f7f57600080fd5b5035919050565b80356001600160a01b0381168114611f9d57600080fd5b919050565b60008060408385031215611fb557600080fd5b611fbe83611f86565b946020939093013593505050565b600080600060608486031215611fe157600080fd5b611fea84611f86565b9250611ff860208501611f86565b9150604084013590509250925092565b60006020828403121561201a57600080fd5b61172f82611f86565b6000602080830181845280855180835260408601915060408160051b870101925083870160005b8281101561207857603f19888603018452612066858351611f2e565b9450928501929085019060010161204a565b5092979650505050505050565b6000806040838503121561209857600080fd5b6120a183611f86565b9150602083013580151581146120b657600080fd5b809150509250929050565b634e487b7160e01b600052604160045260246000fd5b600067ffffffffffffffff808411156120f2576120f26120c1565b604051601f8501601f19908116603f0116810190828211818310171561211a5761211a6120c1565b8160405280935085815286868601111561213357600080fd5b858560208301376000602087830101525050509392505050565b6000806000806080858703121561216357600080fd5b61216c85611f86565b935061217a60208601611f86565b925060408501359150606085013567ffffffffffffffff81111561219d57600080fd5b8501601f810187136121ae57600080fd5b6121bd878235602084016120d7565b91505092959194509250565b600080604083850312156121dc57600080fd5b6121e583611f86565b91506121f360208401611f86565b90509250929050565b600082601f83011261220d57600080fd5b61172f838335602085016120d7565b60008060006060848603121561223157600080fd5b61223a84611f86565b9250602084013567ffffffffffffffff8082111561225757600080fd5b612263878388016121fc565b9350604086013591508082111561227957600080fd5b50612286868287016121fc565b9150509250925092565b600181811c908216806122a457607f821691505b6020821081036122c457634e487b7160e01b600052602260045260246000fd5b50919050565b6020808252602d908201527f4552433732313a2063616c6c6572206973206e6f7420746f6b656e206f776e6560408201526c1c881bdc88185c1c1c9bdd9959609a1b606082015260800190565b634e487b7160e01b600052601160045260246000fd5b8082018082111561034057610340612317565b60008351612352818460208801611f0a565b835190830190612366818360208801611f0a565b01949350505050565b601f82111561051457600081815260208120601f850160051c810160208610156123965750805b601f850160051c820191505b818110156123b5578281556001016123a2565b505050505050565b815167ffffffffffffffff8111156123d7576123d76120c1565b6123eb816123e58454612290565b8461236f565b602080601f83116001811461242057600084156124085750858301515b600019600386901b1c1916600185901b1785556123b5565b600085815260208120601f198616915b8281101561244f57888601518255948401946001909101908401612430565b508582101561246d5787850151600019600388901b60f8161c191681555b5050505050600190811b01905550565b60006001820161248f5761248f612317565b5060010190565b60208082526025908201527f4552433732313a207472616e736665722066726f6d20696e636f72726563742060408201526437bbb732b960d91b606082015260800190565b634e487b7160e01b600052603260045260246000fd5b60208082526032908201527f4552433732313a207472616e7366657220746f206e6f6e20455243373231526560408201527131b2b4bb32b91034b6b83632b6b2b73a32b960711b606082015260800190565b60008251612555818460208701611f0a565b9190910192915050565b600080835461256d81612290565b60018281168015612585576001811461259a576125c9565b60ff19841687528215158302870194506125c9565b8760005260208060002060005b858110156125c05781548a8201529084019082016125a7565b50505082870194505b50929695505050505050565b8181038181111561034057610340612317565b8181036125f3575050565b6125fd8254612290565b67ffffffffffffffff811115612615576126156120c1565b612623816123e58454612290565b6000601f821160018114612657576000831561263f5750848201545b600019600385901b1c1916600184901b178455611937565b600085815260209020601f19841690600086815260209020845b838110156126915782860154825560019586019590910190602001612671565b508583101561246d5793015460001960f8600387901b161c19169092555050600190811b01905550565b634e487b7160e01b600052603160045260246000fd5b6001600160a01b038581168252841660208201526040810183905260806060820181905260009061270490830184611f2e565b9695505050505050565b60006020828403121561272057600080fd5b815161172f81611ed756fea264697066735822122001928211b6fcc4015aaa234fa488ee8585619e77176d5fd863e33ae943c5a71864736f6c63430008110033",
  "devdoc": {
    "kind": "dev",
    "methods": {
      "approve(address,uint256)": {
        "details": "See {IERC721-approve}."
      },
      "balanceOf(address)": {
        "details": "See {IERC721-balanceOf}."
      },
      "getApproved(uint256)": {
        "details": "See {IERC721-getApproved}."
      },
      "isApprovedForAll(address,address)": {
        "details": "See {IERC721-isApprovedForAll}."
      },
      "name()": {
        "details": "See {IERC721Metadata-name}."
      },
      "owner()": {
        "details": "Returns the address of the current owner."
      },
      "ownerOf(uint256)": {
        "details": "See {IERC721-ownerOf}."
      },
      "renounceOwnership()": {
        "details": "Leaves the contract without owner. It will not be possible to call `onlyOwner` functions anymore. Can only be called by the current owner. NOTE: Renouncing ownership will leave the contract without an owner, thereby removing any functionality that is only available to the owner."
      },
      "safeTransferFrom(address,address,uint256)": {
        "details": "See {IERC721-safeTransferFrom}."
      },
      "safeTransferFrom(address,address,uint256,bytes)": {
        "details": "See {IERC721-safeTransferFrom}."
      },
      "setApprovalForAll(address,bool)": {
        "details": "See {IERC721-setApprovalForAll}."
      },
      "supportsInterface(bytes4)": {
        "details": "See {IERC165-supportsInterface}."
      },
      "symbol()": {
        "details": "See {IERC721Metadata-symbol}."
      },
      "tokenURI(uint256)": {
        "details": "See {IERC721Metadata-tokenURI}."
      },
      "transferFrom(address,address,uint256)": {
        "details": "See {IERC721-transferFrom}."
      },
      "transferOwnership(address)": {
        "details": "Transfers ownership of the contract to a new account (`newOwner`). Can only be called by the current owner."
      }
    },
    "version": 1
  },
  "userdoc": {
    "kind": "user",
    "methods": {},
    "version": 1
  },
  "storageLayout": {
    "storage": [
      {
        "astId": 138,
        "contract": "contracts/BubbleBreakerBadge.sol:BubbleBreakerBadge",
        "label": "_name",
        "offset": 0,
        "slot": "0",
        "type": "t_string_storage"
      },
      {
        "astId": 140,
        "contract": "contracts/BubbleBreakerBadge.sol:BubbleBreakerBadge",
        "label": "_symbol",
        "offset": 0,
        "slot": "1",
        "type": "t_string_storage"
      },
      {
        "astId": 144,
        "contract": "contracts/BubbleBreakerBadge.sol:BubbleBreakerBadge",
        "label": "_owners",
        "offset": 0,
        "slot": "2",
        "type": "t_mapping(t_uint256,t_address)"
      },
      {
        "astId": 148,
        "contract": "contracts/BubbleBreakerBadge.sol:BubbleBreakerBadge",
        "label": "_balances",
        "offset": 0,
        "slot": "3",
        "type": "t_mapping(t_address,t_uint256)"
      },
      {
        "astId": 152,
        "contract": "contracts/BubbleBreakerBadge.sol:BubbleBreakerBadge",
        "label": "_tokenApprovals",
        "offset": 0,
        "slot": "4",
        "type": "t_mapping(t_uint256,t_address)"
      },
      {
        "astId": 158,
        "contract": "contracts/BubbleBreakerBadge.sol:BubbleBreakerBadge",
        "label": "_operatorApprovals",
        "offset": 0,
        "slot": "5",
        "type": "t_mapping(t_address,t_mapping(t_address,t_bool))"
      },
      {
        "astId": 1186,
        "contract": "contracts/BubbleBreakerBadge.sol:BubbleBreakerBadge",
        "label": "_tokenURIs",
        "offset": 0,
        "slot": "6",
        "type": "t_mapping(t_uint256,t_string_storage)"
      },
      {
        "astId": 7,
        "contract": "contracts/BubbleBreakerBadge.sol:BubbleBreakerBadge",
        "label": "_owner",
        "offset": 0,
        "slot": "7",
        "type": "t_address"
      },
      {
        "astId": 2763,
        "contract": "contracts/BubbleBreakerBadge.sol:BubbleBreakerBadge",
        "label": "_nextTokenId",
        "offset": 0,
        "slot": "8",
        "type": "t_uint256"
      },
      {
        "astId": 2768,
        "contract": "contracts/BubbleBreakerBadge.sol:BubbleBreakerBadge",
        "label": "addrToMintedNFTs",
        "offset": 0,
        "slot": "9",
        "type": "t_mapping(t_address,t_array(t_string_storage)dyn_storage)"
      },
      {
        "astId": 2773,
        "contract": "contracts/BubbleBreakerBadge.sol:BubbleBreakerBadge",
        "label": "addrToMintableNFTs",
        "offset": 0,
        "slot": "10",
        "type": "t_mapping(t_address,t_array(t_string_storage)dyn_storage)"
      }
    ],
    "types": {
      "t_address": {
        "encoding": "inplace",
        "label": "address",
        "numberOfBytes": "20"
      },
      "t_array(t_string_storage)dyn_storage": {
        "base": "t_string_storage",
        "encoding": "dynamic_array",
        "label": "string[]",
        "numberOfBytes": "32"
      },
      "t_bool": {
        "encoding": "inplace",
        "label": "bool",
        "numberOfBytes": "1"
      },
      "t_mapping(t_address,t_array(t_string_storage)dyn_storage)": {
        "encoding": "mapping",
        "key": "t_address",
        "label": "mapping(address => string[])",
        "numberOfBytes": "32",
        "value": "t_array(t_string_storage)dyn_storage"
      },
      "t_mapping(t_address,t_bool)": {
        "encoding": "mapping",
        "key": "t_address",
        "label": "mapping(address => bool)",
        "numberOfBytes": "32",
        "value": "t_bool"
      },
      "t_mapping(t_address,t_mapping(t_address,t_bool))": {
        "encoding": "mapping",
        "key": "t_address",
        "label": "mapping(address => mapping(address => bool))",
        "numberOfBytes": "32",
        "value": "t_mapping(t_address,t_bool)"
      },
      "t_mapping(t_address,t_uint256)": {
        "encoding": "mapping",
        "key": "t_address",
        "label": "mapping(address => uint256)",
        "numberOfBytes": "32",
        "value": "t_uint256"
      },
      "t_mapping(t_uint256,t_address)": {
        "encoding": "mapping",
        "key": "t_uint256",
        "label": "mapping(uint256 => address)",
        "numberOfBytes": "32",
        "value": "t_address"
      },
      "t_mapping(t_uint256,t_string_storage)": {
        "encoding": "mapping",
        "key": "t_uint256",
        "label": "mapping(uint256 => string)",
        "numberOfBytes": "32",
        "value": "t_string_storage"
      },
      "t_string_storage": {
        "encoding": "bytes",
        "label": "string",
        "numberOfBytes": "32"
      },
      "t_uint256": {
        "encoding": "inplace",
        "label": "uint256",
        "numberOfBytes": "32"
      }
    }
  }
}